:10000000E590540FB4000375A000B4010675A0017B
:1000100075B00CB4020675A00275B00CB403067579
:10002000A00375B00CB4040675A00475B00CB4053B
:100030000675A00575B00CB4060675A00675B00C63
:10004000B4070675A00775B00CB4080675A008754E
:10005000B014B4090675A00975B021B40A0675A0DC
:100060000A75B021B40B1E75A00B75B022B40C0339
:1000700075A00CB40D0375A00DB40E0375B000B4DB
:070080000F0375A00F010042
:00000001FF
